:020000040800F2
:10000000E03400209D010008A5010008B5040008A7
:10001000A9010008AB010008AD01000800000000C4
:10002000000000000000000000000000AF01000818
:10003000B101000800000000B3010008D504000869
:10004000B7010008B7010008B7010008B7010008B0
:10005000B7010008B7010008B7010008B7010008A0
:10006000B7010008B7010008B7010008B701000890
:10007000B7010008B7010008B7010008B701000880
:10008000B7010008B7010008B7010008B701000870
:10009000B7010008B7010008B7010008B701000860
:1000A000B7010008B7010008B7010008B701000850
:1000B000B7010008B7010008B7010008B701000840
:1000C000B7010008B7010008B7010008B701000830
:1000D000B70100086D050008B7010008B701000866
:1000E000B7010008B7010008B7010008B701000810
:1000F000B7010008B7010008B7010008B701000800
:10010000B7010008B7010008B7010008B7010008EF
:10011000B7010008B7010008B7010008B7010008DF
:10012000B7010008B7010008B7010008B7010008CF
:10013000B7010008B7010008B7010008B7010008BF
:10014000B7010008B7010008B7010008B7010008AF
:10015000B7010008B7010008B7010008B70100089F
:10016000B7010008B7010008B7010008B70100088F
:10017000B7010008B7010008B7010008000000003F
:10018000B7010008B7010008DFF80CD000F060F8F4
:1001900000480047F90D0008E03400200648804779
:1001A00006480047FEE7FEE7FEE7FEE7FEE7FEE75C
:1001B000FEE7FEE7FEE7FEE7D70400088901000836
:1001C00040EA01039B0703D009E008C9121F08C0D9
:1001D000042AFAD203E011F8013B00F8013B521E59
:1001E000F9D27047D2B201E000F8012B491EFBD2D0
:1001F00070470022F6E710B513460A460446194632
:10020000FFF7F0FF204610BD10B5002200E0521CA1
:10021000835C8C5CA34201D1002BF8D1D8B2E1B24F
:10022000401A10BD30B50B460146002020220124A3
:1002300009E021FA02F59D4205D303FA02F5491BB4
:1002400004FA02F52844151EA2F10102F1DC30BDCA
:10025000064C074D06E0E06840F0010394E8070013
:1002600098471034AC42F6D3FFF792FFAC11000868
:10027000CC11000801460248006880B270470000B7
:100280004464024010B5114B1B6803F480032BB982
:100290000E4B1B6843F480030C4C23600C4B1B6813
:1002A00003F001032BB10A4B1B6823F00103084C38
:1002B0002360084B064C2360231D1A60044B0C334B
:1002C0001960054B024C0834236010BD30380240E1
:1002D0004064024000040008041001404FF4001183
:1002E000054A116004493831096841F00101024AA8
:1002F0003832116070470000086402400349096801
:1003000021F00101014A1160704700004064024081
:1003100030B50F2900DD30BDC0F30903002B79D1C2
:100320008312A3F58013803B092B73D2DFE803F01F
:1003300005111D2935414D5965005C4B1B6803F0C3
:1003400001032BB9594B1B6843F00103574C236041
:1003500061E0564B1B6803F002032BB9534B1B683B
:1003600043F00203514C236055E0504B1B6803F0EF
:1003700004032BB94D4B1B6843F004034B4C236023
:1003800049E04A4B1B6803F008032BB9474B1B6835
:1003900043F00803454C23603DE0444B1B6803F0E9
:1003A00010032BB9414B1B6843F010033F4C2360F3
:1003B00031E03E4B1B6803F020032BB93B4B1B681D
:1003C00043F02003394C236025E0384B1B6803F0D1
:1003D00040032BB9354B1B6843F04003334C23607B
:1003E00019E0324B1B6803F080032BB92F4B1B68BD
:1003F00043F080032D4C23600DE02C4B1B6803F46D
:1004000080732BB9294B1B6843F48073274C2360FE
:1004100001E0FFE77FE700BF0368254C54F8214067
:10042000234002F003044D00AC4023430360C36843
:100430001F4C54F8214023404D00C2F38104AC40CE
:100440002343C36083681A4C54F8214023404D0075
:10045000C2F30114AC4023438360436801249440F9
:10046000A343C2F380148C402343436008290BDA72
:10047000036A8D000F24AC40A3438D00C2F3032414
:10048000AC40234303620EE0436A2024C4EB8105A1
:100490000F24AC40A3432024C4EB8105C2F3032402
:1004A000AC402343436200BF35E7000030380240D0
:1004B0005411000802A000F043FA00BFFEE700005C
:1004C000486172644661756C745F48616E646C6506
:1004D00072000000704710B500F002F810BD000077
:1004E0001F48006840F480301D49086000BF1C4868
:1004F000006800F400300028F9D01A481849091D96
:100500000860081F006840F08070091F086000BF85
:100510001348006800F000700028F9D01048083037
:10052000006840F414400E49083108600E48006825
:1005300020F00F00401D0C49086009480830006891
:1005400020F00300801C06490831086000BF044801
:100550000830006800F00C000828F8D1704700004F
:100560000038024008544007003C024010B51C48C7
:10057000006800F0800038B11948C06800F08000C1
:1005800010B1174800F0C8F91548006800F02000C5
:1005900038B11348C06800F0200010B1104800F0D6
:1005A000B5F90F48006800F0400038B10C48C06849
:1005B00000F0400010B10A4800F0ADF908480068AA
:1005C00000F0100050B10648C06800F0100028B1DB
:1005D000034800F011F8024800F099F910BD00003E
:1005E000001001404269034B53F821301A43426125
:1005F00070470000A411000870B50546002019E0FE
:1006000000EB800101EB4021194A52F82110A94268
:100610000FD100EB800101EB402102EB810191F849
:100620001118012905D100EB800101EB402102EBFB
:100630008104401C0628E3DB2068FFF75FFE20688A
:10064000FFF718FEC0F5806086B2314604F1100055
:10065000E26890474FF4806104F11000FFF7C9FD94
:1006600020794FF4806204F1100100F0A3FC70BD0A
:10067000640000202DE9F04104460D469A49601AB5
:100680008C426ED009DC99482044D0B3B0F5806F1D
:1006900069D0B0F5006F7DD196E0B0F5404F03D042
:1006A000B0F5444FF7D1EDE09148006840F01000FC
:1006B0008F4908608E482038006840F010008C494F
:1006C000203908600846006820F01000086089485A
:1006D00000692901B0FBF1F6864800692901B0FBE9
:1006E000F1F201FB1200B0FBF5F747EA0610A0603B
:1006F000E06842F20C010843E060252000F030F988
:10070000EEE0FFE77A48001F006840F400307849C7
:10071000091F086076482438006840F400307449A6
:10072000243908600846006820F4003008607148E9
:10073000C0682901B0FBF1F66E48C0682901B0FB22
:10074000F1F201FB1200B0FBF5F747EA0610A060DA
:10075000E06842F20C010843E060262000F000F956
:10076000BEE060E0FFE76248001F006840F48020C0
:100770005F49091F08605E482438006840F4802003
:100780005B49243908600846006820F4802008602E
:10079000584800E0A3E0C0682901B0FBF1F65548D5
:1007A000C0682901B0FBF1F201FB1200B0FBF5F7C4
:1007B00047EA0610A060E06842F20C010843E060DE
:1007C000272000F0CDF88BE04948001F006840F476
:1007D00000204749091F086045482438006840F454
:1007E00000204349243908600846006820F40020AE
:1007F00008604048C0682901B0FBF1F63D48C06878
:100800002901B0FBF1F201FB1200B0FBF5F747EA5A
:100810000610A060E06842F20C010843E06034205A
:1008200000F09EF85CE03248001F006840F4801041
:100830002F49091F08602E482438006840F48010B2
:100840002B49243908600846006820F480100860AD
:100850002848C0682901B0FBF1F62648C068290184
:10086000B0FBF1F201FB1200B0FBF5F747EA06100E
:10087000A060E06842F20C010843E060352000F01F
:100880006FF82DE01A48006840F020001849086011
:1008900017482038006840F02000154920390860CA
:1008A0000846006820F0200008601248C06829014E
:1008B000B0FBF1F60F48C0682901B0FBF1F201FB73
:1008C0001200B0FBF5F747EA0610A060E06842F2BC
:1008D0000C010843E060472000F042F800E000BF50
:1008E00000BFBDE8F08100000050004000BCFFBF29
:1008F0004438024000000020C268034B53F8213006
:100900001A43C26070470000941100087047014606
:100910004868C0B2704770477047000000BF044A83
:10092000126802F08002002AF9D04160704700008E
:10093000001001400146086800F0200070470000E8
:100940000FB4054B10B503A9044A029800F024F82F
:1009500010BC5DF814FB00001D0C000860000020B6
:10096000002809DB00F01F0201219140420992009A
:1009700002F1E022C2F80011704702E008C8121F1D
:1009800008C1002AFAD170477047002001E001C178
:10099000121F002AFBD170472DE9FF4F8BB09A46FA
:1009A0000F460546002606E025280BD052460D9935
:1009B00090476D1C761C28780028F5D10FB0304682
:1009C000BDE8F08F0024A0460122604900E0044306
:1009D00015F8013F203B02FA03F00842F7D12878CE
:1009E0002E2817D115F8010F44F004042A280ED040
:1009F0006FF02F022878A0F1300109290AD808EBFE
:100A0000880102EB410100EB01086D1CF2E757F889
:100A1000048B6D1C287869283ED006DC0028CDD0D8
:100A200063280BD0642804D136E0732810D07528D1
:100A30004BD052460D999047761C85E017F8040B71
:100A40008DF8000000208DF80100E946012003E048
:100A500057F8049B4FF0FF3061074FF0000401D4BA
:100A60000AE0641C44450DDA8442FADB19F80410EC
:100A70000029F6D106E0641C8442FCDB19F804105E
:100A80000029F8D1264404E019F8010B52460D99CB
:100A90009047641EF8D257E001CF4FF00A0B0028B0
:100AA00002DA40422D2102E0210504D52B218DF8E8
:100AB0002410012103E0E10705D02021F7E70DF123
:100AC000200908910CE00021F9E701CF4FF00A0B53
:100AD000F9E75946FFF7A6FB01F1300209F8012DAD
:100AE0000028F6D1ADEB090000F1200B600701D41E
:100AF0004FF00108D84502DDA8EB0B0000E0002014
:100B00008046002406E009A85246005D0D999047F2
:100B1000641C761C08988442F5DB04E030205246C1
:100B20000D999047761CB8F10001A8F10108F5DC99
:100B300005E019F8010B52460D999047761CBBF160
:100B40000001ABF1010BF4DC6D1C34E70928010056
:100B500001460020704700002DE9F04105460F4690
:100B600090461E4600F064F80446234850F82500DD
:100B700004EB840101EB4421204A42F8210004EBFC
:100B8000840000EB4420114601EB8000057104EB6A
:100B9000840000EB442001EB8000876004EB8400BC
:100BA00000EB442001EB8000C0F80C8004EB8400D3
:100BB00000EB442001EB800080F81168012E02D088
:100BC000022E14D109E004EB840101EB44210B4A0D
:100BD00002EB810000F086F909E004EB840101EBEF
:100BE0004421064A02EB810000F090F900BF00BFEB
:100BF0002046BDE8F08100003400002064000020A1
:100C0000054904E00A1EA1F1010100D10249021EBA
:100C1000A0F10100F6D17047A086010013B50C4683
:100C2000042301226946002000F02AF901201CBD9E
:100C300000200BE000EB800101EB4021064A02EBB3
:100C4000810191F8111801B97047401C0628F1DBA9
:100C50004FF0FF30F8E700006400002070B5044654
:100C60000D46164632462946204600F051F8012826
:100C700000D170BD0020FCE770B504460D46164655
:100C800032462946204600F043F8012800D170BDC5
:100C90000020FCE770B504460D461646324629464C
:100CA000204600F0B3F8012800D170BD0020FCE719
:100CB00070B504460D46032229462046FFF7CEFFB5
:100CC000002070BD70B504460D46164632462946D2
:100CD000204600F0FFF9012800D170BD0020FCE79C
:100CE00010B50123074A4FF4E1310020FFF734FF2C
:100CF0000549086005480122D1020368042098478D
:100D000010BD00002D0F000814000020200000205E
:100D10002DE9F04105460E46174600240CE001205F
:100D2000A040304030B1074901EB85203A462146CA
:100D3000FFF7EEFA601CC4B2102CF0DB0020BDE817
:100D4000F08100000000024070B504460D461646D2
:100D5000642D04D3B5F5E12F01D8062C01DB012069
:100D600070BD0C4951F824002946FFF783FC012E81
:100D70000CD1084951F824000321FFF7BDFD0549B6
:100D800051F824000121FFF72DFC00E000BF0020F6
:100D9000E6E700003400002000B59BB00020019081
:100DA00011484368114802784FF4006104209847C5
:100DB0000E48007808B9012000E000200B490870B7
:100DC0000B4801AA02A9836800209847019828B11E
:100DD0000748436802A90020019A98470548FFF791
:100DE0000FFF1BB000BD0000200000201C000020F1
:100DF0004C00002040420F0000F002F800BFFEE768
:100E0000FFF76EFF01E0FFF7C7FFFCE70346054869
:100E100000EB83200069C84000F001001070002042
:100E200070470000000002402DE9F04105460E46E3
:100E30001446062D01DA06B114B90120BDE8F0818F
:100E40000020206016E00D4951F82500FFF772FDE3
:100E500000B910E0094951F82500FFF758FD074691
:100E60002068304420B12168481C2060775400E09D
:100E700001E000BFE7E700BF0020DFE7340000200B
:100E80002DE9F04104460F4615461E4604EB840149
:100E900001EB4421114A02EB810101F582602A46EF
:100EA0003946FFF78DF904EB840101EB44210B4A2D
:100EB00002EB810181F81058042E0CD104EB84015F
:100EC00001EB442102EB8101087905492A464B6870
:100ED0003946984700E000BFBDE8F081640000207B
:100EE0004C00002070B5044694F811282079064D76
:100EF000A1682B68984720794FF4806204F11001B3
:100F000000F058F870BD00004C00002070B5044699
:100F100094F811282079024DA1682B68984770BD7C
:100F20004C000020024600207047000070B50546C6
:100F30000C46642C04D0224629460EA0FFF700FD83
:100F40001148006820441049086010A12846FFF7A6
:100F50005BF940B900200C490860084601680DA003
:100F6000FFF7EEFC04E0084801680FA0FFF7E8FC7B
:100F700070BD00006572726F723A25732C6C656EDD
:100F8000203D2025640D0A0018000020726573655D
:100F90007400000072657365743A73756D203D20AE
:100FA00025640D0A0000000073756D203D20256446
:100FB0000D0A000070B504460D461646064951F864
:100FC000240032462946FFF75DF9034951F8240011
:100FD000FFF784F9002070BD3400002070B504468E
:100FE0000D461646062C6AD2DFE804F003142536B7
:100FF0004758374840F232724FF4007103680020BE
:101000009847334840F232724FF480610368002001
:10101000984754E02E4840F232724FF40071036852
:10102000002098472A4840F232724FF480610368EA
:101030000020984743E0264840F232724FF4007196
:10104000036800209847224840F232724FF48061D2
:1010500003680020984732E01D4840F232724FF496
:101060000071036800209847194840F232724FF42B
:10107000806103680020984721E0154840F23272F1
:101080004FF40071036800209847114840F2327213
:101090004FF4806103680020984710E00C4840F24C
:1010A00032724FF40071036800209847084840F2FC
:1010B00032724FF4806103680020984700BF00BF80
:1010C000324629462046FFF73FFE002070BD000053
:1010D0002000002030B50346002016E001248440A3
:1010E0000C4084B10B4C04EB8324646901258540DA
:1010F000AC430AB9002501E0012585402C43054D8C
:1011000005EB83256C61441CE0B21028E6DB00206F
:1011100030BD0000000002402DE9F04106460C46BB
:101120001746062E00DA14B90120BDE8F08100252B
:1011300006E0615D064A52F82600FFF7EFFB6D1CE2
:10114000BD4202D2605D0028F3D10020EDE700002F
:1011500034000020FCFFFFFFF3FFFFFFCFFFFFFF86
:101160003FFFFFFFFFFCFFFFFFF3FFFFFFCFFFFF8E
:10117000FF3FFFFFFFFFFCFFFFFFF3FFFFFFCFFF7E
:10118000FFFF3FFFFFFFFFFCFFFFFFF3FFFFFFCF6E
:10119000FFFFFF3F80000000200000004000000033
:1011A000100000008000000040000000CC1100088A
:1011B00000000020640000007A09000830120008D6
:1011C000640000207C3400008A090008007A030AC9
:1011D000007A030A007A030A80DE800200BD01055E
:1011E000000000000000000000000000790C000872
:1011F000C50C0008950C00085D0C0008B10C000837
:10120000001001400044004000480040004C0040F5
:101210000050004000140140DD0F000819110008C3
:10122000290E0008250F0008510B000800000000DF
:040000050800018965
:00000001FF
