:020000040800F2
:10000000580400209D010008A5010008A701000870
:10001000A9010008AB010008AD01000800000000C4
:10002000000000000000000000000000AF01000818
:10003000B101000800000000B301000889030008B6
:10004000B7010008B7010008B7010008B7010008B0
:10005000B7010008B7010008B7010008B7010008A0
:10006000B7010008B7010008B7010008B701000890
:10007000B7010008B7010008B7010008B701000880
:10008000B7010008B7010008B7010008B701000870
:10009000B7010008B7010008B7010008B701000860
:1000A000B7010008B7010008B7010008B701000850
:1000B000B7010008B7010008B7010008B701000840
:1000C000B7010008B7010008B7010008B701000830
:1000D000B701000825040008B7010008B7010008AF
:1000E000B7010008B7010008B7010008B701000810
:1000F000B7010008B7010008B7010008B701000800
:10010000B7010008B7010008B7010008B7010008EF
:10011000B7010008B7010008B7010008B7010008DF
:10012000B7010008B7010008B7010008B7010008CF
:10013000B7010008B7010008B7010008B7010008BF
:10014000B7010008B7010008B7010008B7010008AF
:10015000B7010008B7010008B7010008B70100089F
:10016000B7010008B7010008B7010008B70100088F
:10017000B7010008B7010008B7010008000000003F
:10018000B7010008B7010008DFF80CD000F018F83C
:1001900000480047F108000858040020064880473E
:1001A00006480047FEE7FEE7FEE7FEE7FEE7FEE75C
:1001B000FEE7FEE7FEE7FEE78B0300088901000883
:1001C000064C074D06E0E06840F0010394E80700A4
:1001D00098471034AC42F6D3FFF7DAFF8C0A0008D8
:1001E000AC0A000830B50F2900DD30BDC0F30903AB
:1001F000002B79D18312A3F58013803B092B73D296
:10020000DFE803F005111D2935414D5965005C4BB0
:100210001B6803F001032BB9594B1B6843F0010322
:10022000574C236061E0564B1B6803F002032BB967
:10023000534B1B6843F00203514C236055E0504B75
:100240001B6803F004032BB94D4B1B6843F00403F8
:100250004B4C236049E04A4B1B6803F008032BB961
:10026000474B1B6843F00803454C23603DE0444B7B
:100270001B6803F010032BB9414B1B6843F01003BC
:100280003F4C236031E03E4B1B6803F020032BB949
:100290003B4B1B6843F02003394C236025E0384B6F
:1002A0001B6803F040032BB9354B1B6843F0400338
:1002B000334C236019E0324B1B6803F080032BB9E9
:1002C0002F4B1B6843F080032D4C23600DE02C4B1B
:1002D0001B6803F480732BB9294B1B6843F48073AC
:1002E000274C236001E0FFE77FE700BF0368254C50
:1002F00054F82140234002F003044D00AC40234356
:100300000360C3681F4C54F8214023404D00C2F3E2
:100310008104AC402343C36083681A4C54F82140E5
:1003200023404D00C2F30114AC4023438360436873
:1003300001249440A343C2F380148C4023434360C0
:1003400008290BDA036A8D000F24AC40A3438D000B
:10035000C2F30324AC40234303620EE0436A20242B
:10036000C4EB81050F24AC40A3432024C4EB8105DA
:10037000C2F30324AC402343436200BF35E70000CF
:10038000303802404C0A0008704710B500F002F8FF
:1003900010BD00001F48006840F480301D4908600F
:1003A00000BF1C48006800F400300028F9D01A484B
:1003B0001849091D0860081F006840F08070091F77
:1003C000086000BF1348006800F000700028F9D0F2
:1003D00010480830006840F414400E4908310860A5
:1003E0000E48006820F00F00401D0C4908600948C5
:1003F0000830006820F00300801C064908310860BE
:1004000000BF04480830006800F00C000828F8D14C
:10041000704700000038024008544007003C02408A
:100420007047000010B51848006800F0800030B137
:100430001548C06800F0800008B100F029F81248A3
:10044000006800F0200030B10F48C06800F02000C4
:1004500008B100F01BF80C48006800F0400030B113
:100460000948C06800F0400008B100F010F80648E4
:10047000006800F0100030B10348C06800F01000C0
:1004800008B1FFF7CDFF10BD001001407047704765
:10049000704700002DE9F04104460D469A49601A64
:1004A0008C426ED009DC99482044D0B3B0F5806FFF
:1004B00069D0B0F5006F7DD196E0B0F5404F03D024
:1004C000B0F5444FF7D1EDE09148006840F01000DE
:1004D0008F4908608E482038006840F010008C4931
:1004E000203908600846006820F01000086089483C
:1004F00000692901B0FBF1F6864800692901B0FBCB
:10050000F1F201FB1200B0FBF5F747EA0610A0601C
:10051000E06842F20C010843E060252000F011F988
:10052000EEE0FFE77A48001F006840F400307849A9
:10053000091F086076482438006840F40030744988
:10054000243908600846006820F4003008607148CB
:10055000C0682901B0FBF1F66E48C0682901B0FB04
:10056000F1F201FB1200B0FBF5F747EA0610A060BC
:10057000E06842F20C010843E060262000F0E1F858
:10058000BEE060E0FFE76248001F006840F48020A2
:100590005F49091F08605E482438006840F48020E5
:1005A0005B49243908600846006820F48020086010
:1005B000584800E0A3E0C0682901B0FBF1F65548B7
:1005C000C0682901B0FBF1F201FB1200B0FBF5F7A6
:1005D00047EA0610A060E06842F20C010843E060C0
:1005E000272000F0AEF88BE04948001F006840F477
:1005F00000204749091F086045482438006840F436
:1006000000204349243908600846006820F400208F
:1006100008604048C0682901B0FBF1F63D48C06859
:100620002901B0FBF1F201FB1200B0FBF5F747EA3C
:100630000610A060E06842F20C010843E06034203C
:1006400000F07FF85CE03248001F006840F4801042
:100650002F49091F08602E482438006840F4801094
:100660002B49243908600846006820F4801008608F
:100670002848C0682901B0FBF1F62648C068290166
:10068000B0FBF1F201FB1200B0FBF5F747EA0610F0
:10069000A060E06842F20C010843E060352000F001
:1006A00050F82DE01A48006840F020001849086012
:1006B00017482038006840F02000154920390860AC
:1006C0000846006820F0200008601248C068290130
:1006D000B0FBF1F60F48C0682901B0FBF1F201FB55
:1006E0001200B0FBF5F747EA0610A060E06842F29E
:1006F0000C010843E060472000F023F800E000BF51
:1007000000BFBDE8F08100000050004000BCFFBF0A
:10071000443802400000002001464868C0B27047DB
:1007200000BF044A126802F08002002AF9D041603A
:1007300070470000001001400146086800F02000EA
:100740007047002809DB00F01F0201219140420997
:10075000920002F1E022C2F80011704702E008C8DE
:10076000121F08C1002AFAD170477047002001E02B
:1007700001C1121F002AFBD17047014600207047BB
:10078000054904E00A1EA1F1010100D10249021E3F
:10079000A0F10100F6D17047A086010070B50446B3
:1007A0000D461646082C01DD012070BD3246294653
:1007B000204600F043F8012800D1F6E70020F4E7D6
:1007C0000020704770B505460E4614460CB901204E
:1007D00070BD3CB122463146284600F093F801280E
:1007E00000D1F5E70020F3E70020704770B504461C
:1007F0000D46164632462946204600F0EBF8012801
:1008000000D170BD0020FCE710B50A490868804798
:10081000084801220B21C3680420984702210020C8
:1008200000F0B4F804484FF4E1310268002090472A
:1008300010BD0000300000204400002070B50446C8
:100840000D4616460F2D01DC082C01DD012070BD80
:10085000044901EB842032462946FFF7C3FC0020FF
:10086000F5E700000000024070B504460D46642D17
:1008700004D3B5F5E12F01D8062C01DB012070BDB2
:10088000034951F824002946FFF704FE0020F6E74B
:100890001800002000B59BB000200190104843686C
:1008A000104802780B21042098470E48007808B9B8
:1008B000012000E000200B4908700B4801AA02A9A2
:1008C000836800209847019828B10748436802A927
:1008D0000020019A98470548FFF752FF1BB000BD62
:1008E00030000020140000204400002040420F008F
:1008F00000F002F800BFFEE7FFF786FF01E0FFF718
:10090000C9FFFCE703460F2902DC082B00DC0AB90B
:1009100001207047044800EB83200069C84000F0C4
:10092000010010700020F4E7000002402DE9F041C2
:1009300005460E461446062D01DA06B114B901200B
:10094000BDE8F0810020206016E00D4951F8250037
:10095000FFF7F2FE00B910E0094951F82500FFF752
:10096000DBFE07462068304420B12168481C206027
:10097000775400E001E000BFE7E700BF0020DFE7B9
:1009800018000020024600207047000070B50446A1
:100990000D46062C18D2DFE804F0031213141516C6
:1009A0000B4840F232720921C3680020984708487A
:1009B00040F232720A21C3680020984704E003E045
:1009C00002E001E000E000BF00BF002070BD0000B9
:1009D0003000002010B503460F2901DC082B01DD93
:1009E000012010BD094800EB8320406901248C40A0
:1009F000A0430AB9002401E001248C402043034CA9
:100A000004EB832460610020EBE70000000002405B
:100A10002DE9F04106460C461746062E00DA14B9B9
:100A20000120BDE8F081002506E0615D064A52F82C
:100A30002600FFF775FE6D1CBD4202D2605D0028E6
:100A4000F3D10020EDE7000018000020FCFFFFFFBD
:100A5000F3FFFFFFCFFFFFFF3FFFFFFFFFFCFFFFA5
:100A6000FFF3FFFFFFCFFFFFFF3FFFFFFFFFFCFF95
:100A7000FFFFF3FFFFFFCFFFFFFF3FFFFFFFFFFC85
:100A8000FFFFFFF3FFFFFFCFFFFFFF3FAC0A0008B0
:100A900000000020580000005C070008040B00085C
:100AA00058000020000400006C070008007A030AC8
:100AB000007A030A007A030A80DE800200BD010585
:100AC00000000000001001400044004000480040C9
:100AD000004C00400050004000140140C1070008D5
:100AE000ED070008C50700089D070008E907000892
:100AF00069080008110A00082D0900088509000886
:040B00007B07000867
:040000050800018965
:00000001FF
