:020000040800F2
:10000000180400209D010008A5010008A7010008B0
:10001000A9010008AB010008AD01000800000000C4
:10002000000000000000000000000000AF01000818
:10003000B101000800000000B301000889030008B6
:10004000B7010008B7010008B7010008B7010008B0
:10005000B7010008B7010008B7010008B7010008A0
:10006000B7010008B7010008B7010008B701000890
:10007000B7010008B7010008B7010008B701000880
:10008000B7010008B7010008B7010008B701000870
:10009000B7010008B7010008B7010008B701000860
:1000A000B7010008B7010008B7010008B701000850
:1000B000B7010008B7010008B7010008B701000840
:1000C000B7010008B7010008B7010008B701000830
:1000D000B701000825040008B7010008B7010008AF
:1000E000B7010008B7010008B7010008B701000810
:1000F000B7010008B7010008B7010008B701000800
:10010000B7010008B7010008B7010008B7010008EF
:10011000B7010008B7010008B7010008B7010008DF
:10012000B7010008B7010008B7010008B7010008CF
:10013000B7010008B7010008B7010008B7010008BF
:10014000B7010008B7010008B7010008B7010008AF
:10015000B7010008B7010008B7010008B70100089F
:10016000B7010008B7010008B7010008B70100088F
:10017000B7010008B7010008B7010008000000003F
:10018000B7010008B7010008DFF80CD000F018F83C
:1001900000480047A30500081804002006488047CF
:1001A00006480047FEE7FEE7FEE7FEE7FEE7FEE75C
:1001B000FEE7FEE7FEE7FEE78B0300088901000883
:1001C000064C074D06E0E06840F0010394E80700A4
:1001D00098471034AC42F6D3FFF7DAFF6006000808
:1001E0008006000830B50F2900DD30BDC0F30903DB
:1001F000002B79D18312A3F58013803B092B73D296
:10020000DFE803F005111D2935414D5965005C4BB0
:100210001B6803F001032BB9594B1B6843F0010322
:10022000574C236061E0564B1B6803F002032BB967
:10023000534B1B6843F00203514C236055E0504B75
:100240001B6803F004032BB94D4B1B6843F00403F8
:100250004B4C236049E04A4B1B6803F008032BB961
:10026000474B1B6843F00803454C23603DE0444B7B
:100270001B6803F010032BB9414B1B6843F01003BC
:100280003F4C236031E03E4B1B6803F020032BB949
:100290003B4B1B6843F02003394C236025E0384B6F
:1002A0001B6803F040032BB9354B1B6843F0400338
:1002B000334C236019E0324B1B6803F080032BB9E9
:1002C0002F4B1B6843F080032D4C23600DE02C4B1B
:1002D0001B6803F480732BB9294B1B6843F48073AC
:1002E000274C236001E0FFE77FE700BF0368254C50
:1002F00054F82140234002F003044D00AC40234356
:100300000360C3681F4C54F8214023404D00C2F3E2
:100310008104AC402343C36083681A4C54F82140E5
:1003200023404D00C2F30114AC4023438360436873
:1003300001249440A343C2F380148C4023434360C0
:1003400008290BDA036A8D000F24AC40A3438D000B
:10035000C2F30324AC40234303620EE0436A20242B
:10036000C4EB81050F24AC40A3432024C4EB8105DA
:10037000C2F30324AC402343436200BF35E70000CF
:100380003038024020060008704710B500F002F82F
:1003900010BD00001F48006840F480301D4908600F
:1003A00000BF1C48006800F400300028F9D01A484B
:1003B0001849091D0860081F006840F08070091F77
:1003C000086000BF1348006800F000700028F9D0F2
:1003D00010480830006840F430400E490831086089
:1003E0000E48006820F00F00401D0C4908600948C5
:1003F0000830006820F00300801C064908310860BE
:1004000000BF04480830006800F00C000828F8D14C
:10041000704700000038024008544007003C02408A
:100420007047000010B51848006800F0800030B137
:100430001548C06800F0800008B100F029F81248A3
:10044000006800F0200030B10F48C06800F02000C4
:1004500008B100F01BF80C48006800F0400030B113
:100460000948C06800F0400008B100F010F80648E4
:10047000006800F0100030B10348C06800F01000C0
:1004800008B1FFF7CDFF10BD001001407047704765
:10049000704702E008C8121F08C1002AFAD170474D
:1004A0007047002001E001C1121F002AFBD17047F4
:1004B00070B505460C461646402E02DC082D00DCC1
:1004C0000CB9012070BD08E021783246284600F0C2
:1004D0004FF8012800D1F5E7641C002CF4D100206E
:1004E000F0E70020704770B506460C46154605B18A
:1004F0000CB9012070BD09E021782A46304600F091
:100500005BF8012800D1F5E7641C6D1C0CB1002DCF
:10051000F2D10020EEE70020704770B506460C4689
:10052000154605B10CB9012070BD09E02A78217883
:10053000304600F055F8012800D1F5E7641C6D1C29
:100540000CB1002DF2D10020EEE7000008B506A0A6
:100550000068009005490868804704480122694600
:10056000C3680420984708BD0B000000000000206D
:1005700070B504460D4616460F2D03DC402E01DCF7
:10058000082C01DD012070BD044901EB84203246B6
:100590002946FFF727FE0020F5E700000000024093
:1005A000704700F002F800BFFEE7FFF7CFFF01E061
:1005B000FFF7F6FFFCE7000003460F2902DC082BDB
:1005C00000DC0AB901207047044800EB8320006971
:1005D000C84000F0010010700020F4E70000024065
:1005E00010B5034614460F2901DC082B01DD01205C
:1005F00010BD0A4800EB8320406901228A409043E5
:100600000022924200D101E001228A401043034AB5
:1006100002EB832250610020EAE700000000024064
:10062000FCFFFFFFF3FFFFFFCFFFFFFF3FFFFFFFD9
:10063000FFFCFFFFFFF3FFFFFFCFFFFFFF3FFFFFC9
:10064000FFFFFCFFFFFFF3FFFFFFCFFFFFFF3FFFB9
:10065000FFFFFFFCFFFFFFF3FFFFFFCFFFFFFF3FA9
:10066000800600080000002014000000920400082A
:10067000940600081400002004040000A2040008EE
:10068000E30400081B050008E7040008B1040008A3
:040690001705000842
:040000050800018965
:00000001FF
