:020000040800F2
:10000000600600200D020008150200081702000813
:10001000190200081B0200081D0200080000000071
:100020000000000000000000000000001F020008A7
:100030002102000800000000230200082502000839
:1000400027020008270200082702000827020008EC
:1000500027020008270200082702000827020008DC
:1000600027020008270200082702000827020008CC
:1000700027020008270200082702000827020008BC
:1000800027020008270200082702000827020008AC
:10009000270200082702000827020008270200089C
:1000A000270200082702000827020008270200088C
:1000B000270200082702000827020008270200087C
:1000C000270200082702000827020008270200086C
:1000D000270200082702000827020008270200085C
:1000E000270200082702000827020008270200084C
:1000F000270200082702000827020008270200083C
:10010000270200082702000827020008270200082B
:10011000270200082702000827020008270200081B
:10012000270200082702000827020008270200080B
:1001300027020008270200082702000827020008FB
:1001400027020008270200082702000827020008EB
:1001500027020008270200082702000827020008DB
:1001600027020008270200082702000827020008CB
:1001700027020008270200082702000800000000EC
:10018000270200082702000800F002F800F02EF80D
:100190000AA090E8000C82448344AAF10107DA45E2
:1001A00001D100F023F8AFF2090EBAE80F0013F006
:1001B000010F18BFFB1A43F0010318473803000072
:1001C000480300000023002400250026103A28BF21
:1001D00078C1FBD8520728BF30C148BF0B607047B9
:1001E0001FB500F061F91FBD10B510BD00F031F86A
:1001F0001146FFF7F5FF00F04FF900F04FF803B498
:10020000FFF7F2FF03BC00F057F8000009488047F1
:1002100009480047FEE7FEE7FEE7FEE7FEE7FEE7E8
:10022000FEE7FEE7FEE7FEE704480549054A064B00
:10023000704700006D04000889010008600000207C
:1002400060060020600200206002002070477047B6
:100250007047754600F02CF8AE46050069465346D7
:1002600020F00700854618B020B5FFF7DDFFBDE898
:1002700020404FF000064FF000074FF000084FF00D
:10028000000B21F00701AC46ACE8C009ACE8C0099E
:10029000ACE8C009ACE8C0098D46704710B504460B
:1002A000AFF300802046BDE81040FFF7A8BF000074
:1002B000004870470000002001491820ABBEFEE74F
:1002C000260002007047000030B50F2900DD30BD68
:1002D000C0F30903002B79D18312A3F58013803B6F
:1002E000092B73D2DFE803F005111D2935414D5963
:1002F00065005C4B1B6803F001032BB9594B1B686D
:1003000043F00103574C236061E0564B1B6803F038
:1003100002032BB9534B1B6843F00203514C23607B
:1003200055E0504B1B6803F004032BB94D4B1B6881
:1003300043F004034B4C236049E04A4B1B6803F035
:1003400008032BB9474B1B6843F00803454C236057
:100350003DE0444B1B6803F020032BB9414B1B6865
:1003600043F020033F4C236031E03E4B1B6803F019
:1003700020032BB93B4B1B6843F02003394C23600F
:1003800025E0384B1B6803F020032BB9354B1B6865
:1003900043F02003334C236019E0324B1B6803F019
:1003A00020032BB92F4B1B6843F020032D4C2360F7
:1003B0000DE02C4B1B6803F020032BB9294B1B6865
:1003C00043F02003274C236001E0FFE77FE700BFF5
:1003D0000368254C54F82140234002F003044D00EB
:1003E000AC4023430360C3681F4C54F821402340B2
:1003F0004D00C2F38104AC402343C36083681A4CB0
:1004000054F8214023404D00C2F30114AC40234373
:100410008360436801249440A343C2F380148C405A
:100420002343436008290BDA036A8D000F24AC4094
:10043000A3438D00C2F30324AC40234303620EE0C8
:10044000436A2024C4EB81050F24AC40A34320243D
:10045000C4EB8105C2F30324AC402343436200BFD5
:1004600035E7000030380240B4040008704700004F
:1004700010B501220B210248FFF726FF10BD000036
:100480000010024005E00348406980F40060014923
:100490004861F8E70010024000F002F800BFFEE7F4
:1004A000FFF7E6FFFFF7EEFF4FF04070E1EE100AB6
:1004B00070470000FCFFFFFFF3FFFFFFCFFFFFFFD0
:1004C0003FFFFFFFFFFCFFFFFFF3FFFFFFCFFFFF3B
:1004D000FF3FFFFFFFFFFCFFFFFFF3FFFFFFCFFF2B
:1004E000FFFF3FFFFFFFFFFCFFFFFFF3FFFFFFCF1B
:1004F000FFFFFF3F04050008000000206006000029
:04050000C40100082A
:040000050800018965
:00000001FF
