:020000040800F2
:10000000000400209D010008A5010008A7010008C8
:10001000A9010008AB010008AD01000800000000C4
:10002000000000000000000000000000AF01000818
:10003000B101000800000000B301000889030008B6
:10004000B7010008B7010008B7010008B7010008B0
:10005000B7010008B7010008B7010008B7010008A0
:10006000B7010008B7010008B7010008B701000890
:10007000B7010008B7010008B7010008B701000880
:10008000B7010008B7010008B7010008B701000870
:10009000B7010008B7010008B7010008B701000860
:1000A000B7010008B7010008B7010008B701000850
:1000B000B7010008B7010008B7010008B701000840
:1000C000B7010008B7010008B7010008B701000830
:1000D000B7010008B7010008B7010008B701000820
:1000E000B7010008B7010008B7010008B701000810
:1000F000B7010008B7010008B7010008B701000800
:10010000B7010008B7010008B7010008B7010008EF
:10011000B7010008B7010008B7010008B7010008DF
:10012000B7010008B7010008B7010008B7010008CF
:10013000B7010008B7010008B7010008B7010008BF
:10014000B7010008B7010008B7010008B7010008AF
:10015000B7010008B7010008B7010008B70100089F
:10016000B7010008B7010008B7010008B70100088F
:10017000B7010008B7010008B7010008000000003F
:10018000B7010008B7010008DFF80CD000F018F83C
:1001900000480047D90300080004002006488047B3
:1001A00006480047FEE7FEE7FEE7FEE7FEE7FEE75C
:1001B000FEE7FEE7FEE7FEE791030008890100087D
:1001C000064C074D06E0E06840F0010394E80700A4
:1001D00098471034AC42F6D3FFF7DAFF70040008FA
:1001E0008004000830B50F2900DD30BDC0F30903DD
:1001F000002B79D18312A3F58013803B092B73D296
:10020000DFE803F005111D2935414D5965005C4BB0
:100210001B6803F001032BB9594B1B6843F0010322
:10022000574C236061E0564B1B6803F002032BB967
:10023000534B1B6843F00203514C236055E0504B75
:100240001B6803F004032BB94D4B1B6843F00403F8
:100250004B4C236049E04A4B1B6803F008032BB961
:10026000474B1B6843F00803454C23603DE0444B7B
:100270001B6803F010032BB9414B1B6843F01003BC
:100280003F4C236031E03E4B1B6803F020032BB949
:100290003B4B1B6843F02003394C236025E0384B6F
:1002A0001B6803F040032BB9354B1B6843F0400338
:1002B000334C236019E0324B1B6803F080032BB9E9
:1002C0002F4B1B6843F080032D4C23600DE02C4B1B
:1002D0001B6803F480732BB9294B1B6843F48073AC
:1002E000274C236001E0FFE77FE700BF0368254C50
:1002F00054F82140234002F003044D00AC40234356
:100300000360C3681F4C54F8214023404D00C2F3E2
:100310008104AC402343C36083681A4C54F82140E5
:1003200023404D00C2F30114AC4023438360436873
:1003300001249440A343C2F380148C4023434360C0
:1003400008290BDA036A8D000F24AC40A3438D000B
:10035000C2F30324AC40234303620EE0436A20242B
:10036000C4EB81050F24AC40A3432024C4EB8105DA
:10037000C2F30324AC402343436200BF35E70000CF
:10038000303802403004000810B500F01BF810BDF2
:10039000704702E008C8121F08C1002AFAD170474E
:1003A0007047002001E001C1121F002AFBD17047F5
:1003B00010B501220B210248FFF714FF10BD000009
:1003C000001002400348406980F400600149486120
:1003D00070470000001002401249481EB0F1807FB3
:1003E00000D31BE0481E4FF0E022506150170F224F
:1003F000002804DB13071C0E0B4B1C5406E01307EC
:100400001D0E0A4B00F00F04241F1D5500BF0020D5
:100410004FF0E02290610720106100BFFFF7C8FF96
:1004200000BFFEE7FF69180000E400E018ED00E0FF
:10043000FCFFFFFFF3FFFFFFCFFFFFFF3FFFFFFFCB
:10044000FFFCFFFFFFF3FFFFFFCFFFFFFF3FFFFFBB
:10045000FFFFFCFFFFFFF3FFFFFFCFFFFFFF3FFFAB
:10046000FFFFFFFCFFFFFFF3FFFFFFCFFFFFFF3F9B
:10047000800400080000002000040000A20300081F
:040000050800018965
:00000001FF
